{
  "contractName": "Calculator",
  "abi": [
    {
      "inputs": [],
      "payable": false,
      "stateMutability": "nonpayable",
      "type": "constructor"
    },
    {
      "anonymous": false,
      "inputs": [
        {
          "indexed": false,
          "internalType": "address",
          "name": "_from",
          "type": "address"
        },
        {
          "indexed": false,
          "internalType": "uint256",
          "name": "res",
          "type": "uint256"
        },
        {
          "indexed": false,
          "internalType": "uint256",
          "name": "_value",
          "type": "uint256"
        }
      ],
      "name": "diplay",
      "type": "event"
    },
    {
      "constant": true,
      "inputs": [],
      "name": "owner",
      "outputs": [
        {
          "internalType": "address",
          "name": "",
          "type": "address"
        }
      ],
      "payable": false,
      "stateMutability": "view",
      "type": "function"
    },
    {
      "constant": false,
      "inputs": [
        {
          "internalType": "uint256",
          "name": "_a",
          "type": "uint256"
        },
        {
          "internalType": "uint256",
          "name": "_b",
          "type": "uint256"
        }
      ],
      "name": "myPlus",
      "outputs": [
        {
          "internalType": "uint256",
          "name": "res",
          "type": "uint256"
        }
      ],
      "payable": false,
      "stateMutability": "nonpayable",
      "type": "function"
    },
    {
      "constant": false,
      "inputs": [
        {
          "internalType": "uint256",
          "name": "_a",
          "type": "uint256"
        },
        {
          "internalType": "uint256",
          "name": "_b",
          "type": "uint256"
        }
      ],
      "name": "myMinus",
      "outputs": [
        {
          "internalType": "uint256",
          "name": "res",
          "type": "uint256"
        }
      ],
      "payable": false,
      "stateMutability": "nonpayable",
      "type": "function"
    },
    {
      "constant": false,
      "inputs": [],
      "name": "hello",
      "outputs": [
        {
          "internalType": "string",
          "name": "text",
          "type": "string"
        }
      ],
      "payable": false,
      "stateMutability": "nonpayable",
      "type": "function"
    }
  ],
  "bytecode": "0x608060405234801561001057600080fd5b50336000806101000a81548173ffffffffffffffffffffffffffffffffffffffff021916908373ffffffffffffffffffffffffffffffffffffffff160217905550610270806100606000396000f3fe608060405234801561001057600080fd5b506004361061004c5760003560e01c806319ff1d21146100515780637c7708cf146100d45780638da5cb5b14610120578063960a0a4d1461016a575b600080fd5b6100596101b6565b6040518080602001828103825283818151815260200191508051906020019080838360005b8381101561009957808201518184015260208101905061007e565b50505050905090810190601f1680156100c65780820380516001836020036101000a031916815260200191505b509250505060405180910390f35b61010a600480360360408110156100ea57600080fd5b8101908080359060200190929190803590602001909291905050506101f6565b6040518082815260200191505060405180910390f35b610128610206565b604051808273ffffffffffffffffffffffffffffffffffffffff1673ffffffffffffffffffffffffffffffffffffffff16815260200191505060405180910390f35b6101a06004803603604081101561018057600080fd5b81019080803590602001909291908035906020019092919050505061022b565b6040518082815260200191505060405180910390f35b60606040518060400160405280600381526020017f574f570000000000000000000000000000000000000000000000000000000000815250905080905090565b6000818303905080905092915050565b6000809054906101000a900473ffffffffffffffffffffffffffffffffffffffff1681565b600081830190508090509291505056fea265627a7a7231582060023dc12ff3dddf480e8869009a6480d25c115a8360015886f82f2d6b68ce4f64736f6c63430005100032",
  "source": "pragma solidity >=0.4.22 <0.7.0;\r\n\r\ncontract Calculator {\r\n    address public owner;\r\n\r\n    constructor() public {\r\n        owner = msg.sender;\r\n    }\r\n\r\n    event diplay(address _from,uint res,uint _value);\r\n    function myPlus(uint _a,uint _b) public returns (uint res ) {\r\n         res = _a + _b;\r\n        return res;\r\n    }\r\n    function myMinus(uint _a,uint _b) public returns (uint res) {\r\n       res = _a - _b;\r\n        return res;\r\n    }\r\n     function hello() public returns (string memory text) {\r\n       text = \"WOW\";\r\n        return text;\r\n    }\r\n\r\n}\r\n",
  "sourcePath": "C:\\Users\\OS\\Documents\\wormupTBWG\\truffle\\contracts\\demoThailand.sol",
  "compiler": {
    "name": "solc",
    "version": "0.5.16+commit.9c3226ce.Emscripten.clang"
  },
  "schemaVersion": "3.0.23",
  "updatedAt": "2020-02-15T00:51:28.498Z",
  "networkType": "ethereum",
  "devdoc": {
    "methods": {}
  },
  "userdoc": {
    "methods": {}
  }
}