{
  "contractName": "Dockchain",
  "abi": [
    {
      "constant": true,
      "inputs": [
        {
          "internalType": "uint256",
          "name": "",
          "type": "uint256"
        }
      ],
      "name": "consul",
      "outputs": [
        {
          "internalType": "string",
          "name": "name",
          "type": "string"
        },
        {
          "internalType": "uint256",
          "name": "id",
          "type": "uint256"
        }
      ],
      "payable": false,
      "stateMutability": "view",
      "type": "function"
    },
    {
      "constant": false,
      "inputs": [
        {
          "internalType": "string",
          "name": "_country",
          "type": "string"
        },
        {
          "internalType": "uint256",
          "name": "_consulId",
          "type": "uint256"
        }
      ],
      "name": "addConsul",
      "outputs": [],
      "payable": false,
      "stateMutability": "nonpayable",
      "type": "function"
    },
    {
      "constant": true,
      "inputs": [
        {
          "internalType": "uint256",
          "name": "_consulId",
          "type": "uint256"
        }
      ],
      "name": "getConsul",
      "outputs": [
        {
          "internalType": "string",
          "name": "",
          "type": "string"
        }
      ],
      "payable": false,
      "stateMutability": "view",
      "type": "function"
    }
  ],
  "bytecode": "0x608060405234801561001057600080fd5b50610526806100206000396000f3fe608060405234801561001057600080fd5b50600436106100415760003560e01c8063b0e2bdf014610046578063c67a58e61461010b578063d5cf4c08146101b2575b600080fd5b6101096004803603604081101561005c57600080fd5b810190808035906020019064010000000081111561007957600080fd5b82018360208201111561008b57600080fd5b803590602001918460018302840111640100000000831117156100ad57600080fd5b91908080601f016020809104026020016040519081016040528093929190818152602001838380828437600081840152601f19601f82011690508083019250505050505050919291929080359060200190929190505050610260565b005b6101376004803603602081101561012157600080fd5b81019080803590602001909291905050506102d0565b6040518080602001828103825283818151815260200191508051906020019080838360005b8381101561017757808201518184015260208101905061015c565b50505050905090810190601f1680156101a45780820380516001836020036101000a031916815260200191505b509250505060405180910390f35b6101de600480360360208110156101c857600080fd5b8101908080359060200190929190505050610390565b6040518080602001838152602001828103825284818151815260200191508051906020019080838360005b83811015610224578082015181840152602081019050610209565b50505050905090810190601f1680156102515780820380516001836020036101000a031916815260200191505b50935050505060405180910390f35b60086040518060400160405280848152602001838152509080600181540180825580915050906001820390600052602060002090600202016000909192909190915060008201518160000190805190602001906102be92919061044c565b50602082015181600101555050505050565b6060600882815481106102df57fe5b90600052602060002090600202016000018054600181600116156101000203166002900480601f0160208091040260200160405190810160405280929190818152602001828054600181600116156101000203166002900480156103845780601f1061035957610100808354040283529160200191610384565b820191906000526020600020905b81548152906001019060200180831161036757829003601f168201915b50505050509050919050565b6007602052806000526040600020600091509050806000018054600181600116156101000203166002900480601f01602080910402602001604051908101604052809291908181526020018280546001816001161561010002031660029004801561043c5780601f106104115761010080835404028352916020019161043c565b820191906000526020600020905b81548152906001019060200180831161041f57829003601f168201915b5050505050908060010154905082565b828054600181600116156101000203166002900490600052602060002090601f016020900481019282601f1061048d57805160ff19168380011785556104bb565b828001600101855582156104bb579182015b828111156104ba57825182559160200191906001019061049f565b5b5090506104c891906104cc565b5090565b6104ee91905b808211156104ea5760008160009055506001016104d2565b5090565b9056fea265627a7a723158208759fc22a70e4030e705cbddad97ef45ebb2933413807d4cdac425b833a9fc9764736f6c63430005100032",
  "source": "pragma solidity >=0.4.22 <0.7.0;\n\ncontract Dockchain {\n    address private buyer;\n    address private seller;\n    address nowProvider;\n    uint256 private harmonize;\n    address shipId;\n    address consul_in;\n    address consul_des;\n\n    // constructor(address buyers,address provider) public {\n    //     buyer = buyers;\n    //     seller = msg.sender;\n    //     nowProvider = provider;\n    //     //consul_in = 1;\n    //     //consul_des = 9;\n    // }\n    mapping(uint256 => Consul) public consul;\n    //consul[\"Thai\"]=9;\n\n    //consul[] consuls;\n    struct Consul {\n        string name;\n        uint256 id;\n    }\n    Consul[] consuls;\n    function addConsul(string memory _country, uint256 _consulId) public {\n       consuls.push(Consul(_country, _consulId));\n\n    }\n\n    function getConsul(uint256 _consulId) public view returns (string memory) {\n  return consuls[_consulId].name;\n    }\n\n}\n",
  "sourcePath": "D:\\tbwg\\truffle\\contracts\\dockchain.sol",
  "compiler": {
    "name": "solc",
    "version": "0.5.16+commit.9c3226ce.Emscripten.clang"
  },
  "schemaVersion": "3.0.23",
  "updatedAt": "2020-02-15T22:09:43.549Z",
  "networkType": "ethereum",
  "devdoc": {
    "methods": {}
  },
  "userdoc": {
    "methods": {}
  }
}