{
  "contractName": "dockchain",
  "abi": [
    {
      "constant": false,
      "inputs": [
        {
          "internalType": "string",
          "name": "country",
          "type": "string"
        },
        {
          "internalType": "uint256",
          "name": "consulId",
          "type": "uint256"
        }
      ],
      "name": "addConsul",
      "outputs": [
        {
          "internalType": "uint256",
          "name": "consul_id",
          "type": "uint256"
        }
      ],
      "payable": false,
      "stateMutability": "nonpayable",
      "type": "function"
    },
    {
      "constant": false,
      "inputs": [
        {
          "internalType": "string",
          "name": "country",
          "type": "string"
        }
      ],
      "name": "getConsul",
      "outputs": [
        {
          "internalType": "uint256",
          "name": "",
          "type": "uint256"
        }
      ],
      "payable": false,
      "stateMutability": "nonpayable",
      "type": "function"
    },
    {
      "constant": false,
      "inputs": [],
      "name": "getBuyer",
      "outputs": [
        {
          "internalType": "address",
          "name": "buy",
          "type": "address"
        }
      ],
      "payable": false,
      "stateMutability": "nonpayable",
      "type": "function"
    },
    {
      "constant": false,
      "inputs": [],
      "name": "getSeller",
      "outputs": [
        {
          "internalType": "address",
          "name": "sell",
          "type": "address"
        }
      ],
      "payable": false,
      "stateMutability": "nonpayable",
      "type": "function"
    },
    {
      "constant": false,
      "inputs": [
        {
          "internalType": "address",
          "name": "buy",
          "type": "address"
        }
      ],
      "name": "setBuyer",
      "outputs": [],
      "payable": false,
      "stateMutability": "nonpayable",
      "type": "function"
    },
    {
      "constant": false,
      "inputs": [
        {
          "internalType": "address",
          "name": "sell",
          "type": "address"
        }
      ],
      "name": "setSeller",
      "outputs": [],
      "payable": false,
      "stateMutability": "nonpayable",
      "type": "function"
    }
  ],
  "bytecode": "0x608060405234801561001057600080fd5b50610538806100206000396000f3fe608060405234801561001057600080fd5b50600436106100625760003560e01c8063603daf9a1461006757806391161d6d146100b1578063a3f09ad614610180578063b0e2bdf0146101c4578063dbd0e1b61461029d578063e99d2866146102e7575b600080fd5b61006f61032b565b604051808273ffffffffffffffffffffffffffffffffffffffff1673ffffffffffffffffffffffffffffffffffffffff16815260200191505060405180910390f35b61016a600480360360208110156100c757600080fd5b81019080803590602001906401000000008111156100e457600080fd5b8201836020820111156100f657600080fd5b8035906020019184600183028401116401000000008311171561011857600080fd5b91908080601f016020809104026020016040519081016040528093929190818152602001838380828437600081840152601f19601f820116905080830192505050505050509192919290505050610354565b6040518082815260200191505060405180910390f35b6101c26004803603602081101561019657600080fd5b81019080803573ffffffffffffffffffffffffffffffffffffffff1690602001909291905050506103d8565b005b610287600480360360408110156101da57600080fd5b81019080803590602001906401000000008111156101f757600080fd5b82018360208201111561020957600080fd5b8035906020019184600183028401116401000000008311171561022b57600080fd5b91908080601f016020809104026020016040519081016040528093929190818152602001838380828437600081840152601f19601f8201169050808301925050505050505091929192908035906020019092919050505061041b565b6040518082815260200191505060405180910390f35b6102a5610495565b604051808273ffffffffffffffffffffffffffffffffffffffff1673ffffffffffffffffffffffffffffffffffffffff16815260200191505060405180910390f35b610329600480360360208110156102fd57600080fd5b81019080803573ffffffffffffffffffffffffffffffffffffffff1690602001909291905050506104bf565b005b60008060009054906101000a900473ffffffffffffffffffffffffffffffffffffffff16905090565b60006007826040518082805190602001908083835b6020831061038c5780518252602082019150602081019050602083039250610369565b6001836020036101000a03801982511681845116808217855250505050505090500191505090815260200160405180910390206000815480929190600101919050555060019050919050565b806000806101000a81548173ffffffffffffffffffffffffffffffffffffffff021916908373ffffffffffffffffffffffffffffffffffffffff16021790555050565b6000816007846040518082805190602001908083835b602083106104545780518252602082019150602081019050602083039250610431565b6001836020036101000a0380198251168184511680821785525050505050509050019150509081526020016040518091039020819055506001905092915050565b6000600160009054906101000a900473ffffffffffffffffffffffffffffffffffffffff16905090565b80600160006101000a81548173ffffffffffffffffffffffffffffffffffffffff021916908373ffffffffffffffffffffffffffffffffffffffff1602179055505056fea265627a7a72315820f55c2c279a6cdeb069c09469bf281ca22cceb9c5f30fdeab1f905e8b605157b064736f6c63430005100032",
  "source": "pragma solidity >=0.4.22 <0.7.0;\r\n\r\ncontract dockchain {\r\n    address private buyer;\r\n    address private seller;\r\n    address nowProvider;\r\n    uint private harmonize;\r\n    address shipId;\r\n    address consul_in;\r\n    address consul_des;\r\n\r\n    // constructor(address buyers,address provider) public {\r\n    //     buyer = buyers;\r\n    //     seller = msg.sender;\r\n    //     nowProvider = provider;\r\n    //     //consul_in = 1;\r\n    //     //consul_des = 9;\r\n    // }\r\n    mapping(string=>uint) consul;\r\n    //consul[\"Thai\"]=9;\r\n\r\n    //consul[] consuls;\r\n\r\n    function addConsul(string memory country,uint consulId) public returns (uint consul_id){\r\n        consul[country] = consulId;\r\n        return 1;\r\n    }\r\n\r\n    function getConsul(string memory country) public returns (uint) {\r\n        consul[country]++;\r\n        return 1;\r\n    }\r\n\r\n    // struct provider {\r\n\r\n    // }\r\n\r\n    //mapping(address=>provider) Provider;\r\n    //Provider.push(adddress)\r\n\r\n\r\n    function getBuyer()public returns (address buy) {\r\n       return buyer;\r\n    }\r\n    function getSeller()public returns (address sell) {\r\n       return seller;\r\n    }\r\n\r\n    function setBuyer(address buy)public {\r\n       buyer = buy;\r\n    }\r\n    function setSeller(address sell)public {\r\n       seller = sell;\r\n    }\r\n\r\n    // function ship(address cargo, address nowProvider, address nextProvider) public {\r\n\r\n    // }\r\n\r\n    //กงศุล\r\n    // function approve(address memory seller,address memory provider)  {\r\n    //     require(mes.sender == 1);\r\n    //     require(seller==provider);\r\n    //     return true;\r\n    // }\r\n\r\n    // //provider\r\n    // function updateShip(address ship) {\r\n    //     require(msg.sender==this.nowProvider);\r\n    //     this.shipId=ship;\r\n    // }\r\n\r\n    // //function updateStat()\r\n\r\n}",
  "sourcePath": "D:\\SE\\TBWG\\hackDay\\wormupTBWG\\truffle\\contracts\\dockchain.sol",
  "compiler": {
    "name": "solc",
    "version": "0.5.16+commit.9c3226ce.Emscripten.clang"
  },
  "schemaVersion": "3.0.23",
  "updatedAt": "2020-02-15T12:01:32.458Z",
  "devdoc": {
    "methods": {}
  },
  "userdoc": {
    "methods": {}
  }
}