{
  "contractName": "maya",
  "abi": [
    {
      "constant": true,
      "inputs": [],
      "name": "turnme",
      "outputs": [
        {
          "internalType": "uint256",
          "name": "",
          "type": "uint256"
        }
      ],
      "payable": false,
      "stateMutability": "view",
      "type": "function"
    }
  ],
  "bytecode": "0x60806040526010600055348015601457600080fd5b506087806100236000396000f3fe6080604052348015600f57600080fd5b506004361060285760003560e01c80634a05e13514602d575b600080fd5b60336049565b6040518082815260200191505060405180910390f35b6000805490509056fea265627a7a723158205a906d9726228249aee1bf5700264223cf3c272d5f69eeff37a778b6bcecf49b64736f6c63430005100032",
  "source": "pragma solidity >=0.4.22 <0.7.0;\r\n\r\ncontract maya {\r\n    uint digit = 16;\r\n\r\n    function turnme() public view returns (uint) {\r\n        return digit;\r\n    }\r\n\r\n}",
  "sourcePath": "D:\\SE\\TBWG\\hackDay\\wormupTBWG\\truffle\\contracts\\myar.sol",
  "compiler": {
    "name": "solc",
    "version": "0.5.16+commit.9c3226ce.Emscripten.clang"
  },
  "schemaVersion": "3.0.23",
  "updatedAt": "2020-02-15T12:01:35.702Z",
  "networkType": "ethereum",
  "devdoc": {
    "methods": {}
  },
  "userdoc": {
    "methods": {}
  }
}