{
  "contractName": "Product",
  "abi": [
    {
      "inputs": [
        {
          "internalType": "address",
          "name": "_ownProduct",
          "type": "address"
        },
        {
          "internalType": "address",
          "name": "_destination",
          "type": "address"
        },
        {
          "internalType": "string",
          "name": "_productName",
          "type": "string"
        }
      ],
      "payable": false,
      "stateMutability": "nonpayable",
      "type": "constructor"
    },
    {
      "constant": true,
      "inputs": [],
      "name": "getProductData",
      "outputs": [
        {
          "internalType": "address",
          "name": "",
          "type": "address"
        },
        {
          "internalType": "address",
          "name": "",
          "type": "address"
        },
        {
          "internalType": "string",
          "name": "",
          "type": "string"
        }
      ],
      "payable": false,
      "stateMutability": "view",
      "type": "function"
    },
    {
      "constant": true,
      "inputs": [
        {
          "internalType": "string",
          "name": "_name",
          "type": "string"
        },
        {
          "internalType": "string",
          "name": "_location",
          "type": "string"
        },
        {
          "internalType": "address",
          "name": "_provider",
          "type": "address"
        }
      ],
      "name": "addStage",
      "outputs": [],
      "payable": false,
      "stateMutability": "pure",
      "type": "function"
    },
    {
      "constant": false,
      "inputs": [
        {
          "internalType": "string",
          "name": "docID",
          "type": "string"
        },
        {
          "internalType": "uint256",
          "name": "stageID",
          "type": "uint256"
        }
      ],
      "name": "addDocment",
      "outputs": [],
      "payable": false,
      "stateMutability": "nonpayable",
      "type": "function"
    }
  ],
  "bytecode": "0x608060405234801561001057600080fd5b5060405161087e38038061087e8339818101604052606081101561003357600080fd5b8101908080519060200190929190805190602001909291908051604051939291908464010000000082111561006757600080fd5b8382019150602082018581111561007d57600080fd5b825186600182028301116401000000008211171561009a57600080fd5b8083526020830192505050908051906020019080838360005b838110156100ce5780820151818401526020810190506100b3565b50505050905090810190601f1680156100fb5780820380516001836020036101000a031916815260200191505b50604052505050826000806101000a81548173ffffffffffffffffffffffffffffffffffffffff021916908373ffffffffffffffffffffffffffffffffffffffff16021790555081600160006101000a81548173ffffffffffffffffffffffffffffffffffffffff021916908373ffffffffffffffffffffffffffffffffffffffff16021790555080600290805190602001906101999291906101a2565b50505050610247565b828054600181600116156101000203166002900490600052602060002090601f016020900481019282601f106101e357805160ff1916838001178555610211565b82800160010185558215610211579182015b828111156102105782518255916020019190600101906101f5565b5b50905061021e9190610222565b5090565b61024491905b80821115610240576000816000905550600101610228565b5090565b90565b610628806102566000396000f3fe608060405234801561001057600080fd5b50600436106100415760003560e01c806317fb54131461004657806395e41a3e146101b8578063d4af4f81146102a1575b600080fd5b6101b66004803603606081101561005c57600080fd5b810190808035906020019064010000000081111561007957600080fd5b82018360208201111561008b57600080fd5b803590602001918460018302840111640100000000831117156100ad57600080fd5b91908080601f016020809104026020016040519081016040528093929190818152602001838380828437600081840152601f19601f8201169050808301925050505050505091929192908035906020019064010000000081111561011057600080fd5b82018360208201111561012257600080fd5b8035906020019184600183028401116401000000008311171561014457600080fd5b91908080601f016020809104026020016040519081016040528093929190818152602001838380828437600081840152601f19601f820116905080830192505050505050509192919290803573ffffffffffffffffffffffffffffffffffffffff169060200190929190505050610366565b005b6101c06103be565b604051808473ffffffffffffffffffffffffffffffffffffffff1673ffffffffffffffffffffffffffffffffffffffff1681526020018373ffffffffffffffffffffffffffffffffffffffff1673ffffffffffffffffffffffffffffffffffffffff16815260200180602001828103825283818151815260200191508051906020019080838360005b83811015610264578082015181840152602081019050610249565b50505050905090810190601f1680156102915780820380516001836020036101000a031916815260200191505b5094505050505060405180910390f35b610364600480360360408110156102b757600080fd5b81019080803590602001906401000000008111156102d457600080fd5b8201836020820111156102e657600080fd5b8035906020019184600183028401116401000000008311171561030857600080fd5b91908080601f016020809104026020016040519081016040528093929190818152602001838380828437600081840152601f19601f820116905080830192505050505050509192919290803590602001909291905050506104b1565b005b61036e610510565b83816000018190525082816020018190525081816040019073ffffffffffffffffffffffffffffffffffffffff16908173ffffffffffffffffffffffffffffffffffffffff168152505050505050565b60008060606000809054906101000a900473ffffffffffffffffffffffffffffffffffffffff16600160009054906101000a900473ffffffffffffffffffffffffffffffffffffffff166002808054600181600116156101000203166002900480601f01602080910402602001604051908101604052809291908181526020018280546001816001161561010002031660029004801561049f5780601f106104745761010080835404028352916020019161049f565b820191906000526020600020905b81548152906001019060200180831161048257829003601f168201915b50505050509050925092509250909192565b600381815481106104be57fe5b906000526020600020906004020160030182908060018154018082558091505090600182039060005260206000200160009091929091909150908051906020019061050a92919061054e565b50505050565b60405180608001604052806060815260200160608152602001600073ffffffffffffffffffffffffffffffffffffffff168152602001606081525090565b828054600181600116156101000203166002900490600052602060002090601f016020900481019282601f1061058f57805160ff19168380011785556105bd565b828001600101855582156105bd579182015b828111156105bc5782518255916020019190600101906105a1565b5b5090506105ca91906105ce565b5090565b6105f091905b808211156105ec5760008160009055506001016105d4565b5090565b9056fea265627a7a72315820161c7027a7e340b3ece6f84dcc5e2af5f4372df863ccab29fa5af3747f4ccc8d64736f6c63430005100032",
  "source": "pragma solidity >=0.4.22 <0.7.0;\ncontract ProductFactory {\n    Product[]  products ;\n\n\n    function createProduct(\n        address _ownProduct,\n        address _destination,\n        string memory _productName\n    ) public\n     {\n        Product newProduct = new Product(\n            _ownProduct,\n            _destination,\n            _productName\n        );\n      products.push(newProduct);\n\n    }\n    function getProduct(uint _Id )  public view returns(address,address,string memory) {\n\n return products[_Id].getProductData();\n    }\n    function getAllProduct( )  public view returns(Product[] memory) {\n\n return  products;\n    }\n\n}\n\ncontract Product {\n    address ownProduct;\n    address destination;\n    string productName;\n\n    // struct Document {\n    //   string name;\n    //   uint documentId;\n    // }\n    ProductState[] productStages;\n    mapping(uint256 => string) DocumentsOf;\n    //mapping(uint256 => ProductState) ProductStateeof;\n    struct ProductState {\n        string name;\n        string location;\n        address provider;\n        string[] doscumentIDs;\n    }\n\n    constructor(\n        address _ownProduct,\n        address _destination,\n        string memory _productName\n    ) public {\n        ownProduct = _ownProduct;\n        destination = _destination;\n        productName = _productName;\n    }\n function getProductData()public view returns(address,address,string memory){\n     return (ownProduct,destination,productName);\n }\n\n\n    function addStage (\n        string memory _name,\n        string memory _location,\n        address _provider\n    ) public  pure{\n        ProductState memory pd;\n        pd.name = _name;\n        pd.location = _location;\n        pd.provider = _provider;\n\n    }\n\n    function addDocment(string memory docID, uint256 stageID) public {\n        productStages[stageID].doscumentIDs.push(docID);\n\n    }\n\n}\n",
  "sourcePath": "D:\\tbwg\\truffle\\contracts\\product.sol",
  "compiler": {
    "name": "solc",
    "version": "0.5.16+commit.9c3226ce.Emscripten.clang"
  },
  "schemaVersion": "3.0.23",
  "updatedAt": "2020-02-15T22:09:39.634Z",
  "devdoc": {
    "methods": {}
  },
  "userdoc": {
    "methods": {}
  }
}